{
  "_format": "hh-sol-artifact-1",
  "contractName": "Bank",
  "sourceName": "contracts/Bank.sol",
  "abi": [
    {
      "inputs": [],
      "name": "addMoneyToBank",
      "outputs": [],
      "stateMutability": "payable",
      "type": "function"
    },
    {
      "inputs": [],
      "name": "depositCorrectly",
      "outputs": [],
      "stateMutability": "payable",
      "type": "function"
    },
    {
      "inputs": [
        {
          "internalType": "address",
          "name": "user",
          "type": "address"
        },
        {
          "internalType": "uint256",
          "name": "amount",
          "type": "uint256"
        }
      ],
      "name": "depositIncorrectly",
      "outputs": [],
      "stateMutability": "nonpayable",
      "type": "function"
    },
    {
      "inputs": [
        {
          "internalType": "address",
          "name": "userAddress",
          "type": "address"
        }
      ],
      "name": "getBalance",
      "outputs": [
        {
          "internalType": "uint256",
          "name": "",
          "type": "uint256"
        }
      ],
      "stateMutability": "view",
      "type": "function"
    },
    {
      "inputs": [],
      "name": "getGlobalBankBalance",
      "outputs": [
        {
          "internalType": "uint256",
          "name": "",
          "type": "uint256"
        }
      ],
      "stateMutability": "nonpayable",
      "type": "function"
    },
    {
      "inputs": [],
      "name": "withdraw",
      "outputs": [],
      "stateMutability": "payable",
      "type": "function"
    }
  ],
  "bytecode": "0x608060405234801561001057600080fd5b506106ef806100206000396000f3fe6080604052600436106100555760003560e01c806317c077ae1461005a5780631c59a00f14610064578063294537691461008d5780633ccfd60b1461009757806368d79144146100a1578063f8b2cb4f146100cc575b600080fd5b610062610109565b005b34801561007057600080fd5b5061008b6004803603810190610086919061044d565b61010b565b005b61009561016b565b005b61009f6101b1565b005b3480156100ad57600080fd5b506100b661025d565b6040516100c39190610498565b60405180910390f35b3480156100d857600080fd5b506100f360048036038101906100ee9190610424565b610266565b6040516101009190610498565b60405180910390f35b565b80600160008473ffffffffffffffffffffffffffffffffffffffff1673ffffffffffffffffffffffffffffffffffffffff168152602001908152602001600020819055508060008082825461016091906104dc565b925050819055505050565b34600160003373ffffffffffffffffffffffffffffffffffffffff1673ffffffffffffffffffffffffffffffffffffffff16815260200190815260200160002081905550565b600033905060006101c133610266565b90506000600160003373ffffffffffffffffffffffffffffffffffffffff1673ffffffffffffffffffffffffffffffffffffffff168152602001908152602001600020819055506102128147610335565b8173ffffffffffffffffffffffffffffffffffffffff166108fc829081150290604051600060405180830381858888f19350505050158015610258573d6000803e3d6000fd5b505050565b60008054905090565b600080600160008473ffffffffffffffffffffffffffffffffffffffff1673ffffffffffffffffffffffffffffffffffffffff1681526020019081526020016000205490506000600260008573ffffffffffffffffffffffffffffffffffffffff1673ffffffffffffffffffffffffffffffffffffffff16815260200190815260200160002054426102f891906105bd565b905063bbf81e008160078461030d9190610563565b6103179190610563565b6103219190610532565b8261032c91906104dc565b92505050919050565b6103cd828260405160240161034b9291906104b3565b6040516020818303038152906040527f6c0f6980000000000000000000000000000000000000000000000000000000007bffffffffffffffffffffffffffffffffffffffffffffffffffffffff19166020820180517bffffffffffffffffffffffffffffffffffffffffffffffffffffffff83818316178352505050506103d1565b5050565b60008151905060006a636f6e736f6c652e6c6f679050602083016000808483855afa5050505050565b6000813590506104098161068b565b92915050565b60008135905061041e816106a2565b92915050565b60006020828403121561043657600080fd5b6000610444848285016103fa565b91505092915050565b6000806040838503121561046057600080fd5b600061046e858286016103fa565b925050602061047f8582860161040f565b9150509250929050565b61049281610623565b82525050565b60006020820190506104ad6000830184610489565b92915050565b60006040820190506104c86000830185610489565b6104d56020830184610489565b9392505050565b60006104e782610623565b91506104f283610623565b9250827fffffffffffffffffffffffffffffffffffffffffffffffffffffffffffffffff038211156105275761052661062d565b5b828201905092915050565b600061053d82610623565b915061054883610623565b9250826105585761055761065c565b5b828204905092915050565b600061056e82610623565b915061057983610623565b9250817fffffffffffffffffffffffffffffffffffffffffffffffffffffffffffffffff04831182151516156105b2576105b161062d565b5b828202905092915050565b60006105c882610623565b91506105d383610623565b9250828210156105e6576105e561062d565b5b828203905092915050565b60006105fc82610603565b9050919050565b600073ffffffffffffffffffffffffffffffffffffffff82169050919050565b6000819050919050565b7f4e487b7100000000000000000000000000000000000000000000000000000000600052601160045260246000fd5b7f4e487b7100000000000000000000000000000000000000000000000000000000600052601260045260246000fd5b610694816105f1565b811461069f57600080fd5b50565b6106ab81610623565b81146106b657600080fd5b5056fea2646970667358221220a6c808f86b4c832f5f17350592a0aed0727699bed490346f43c9684b0a7012f364736f6c63430008040033",
  "linkReferences": {},
  "deployedLinkReferences": {}
}