{
  "_format": "hh-sol-artifact-1",
  "contractName": "Bank",
  "sourceName": "contracts/Bank.sol",
  "abi": [
    {
      "inputs": [],
      "name": "depositCorrectly",
      "outputs": [],
      "stateMutability": "payable",
      "type": "function"
    },
    {
      "inputs": [
        {
          "internalType": "address",
          "name": "user",
          "type": "address"
        },
        {
          "internalType": "uint256",
          "name": "amount",
          "type": "uint256"
        }
      ],
      "name": "depositIncorrectly",
      "outputs": [],
      "stateMutability": "nonpayable",
      "type": "function"
    },
    {
      "inputs": [],
      "name": "getGlobalBankBalance",
      "outputs": [
        {
          "internalType": "uint256",
          "name": "",
          "type": "uint256"
        }
      ],
      "stateMutability": "nonpayable",
      "type": "function"
    }
  ],
  "bytecode": "0x608060405234801561001057600080fd5b506102fb806100206000396000f3fe6080604052600436106100345760003560e01c80631c59a00f14610039578063294537691461006257806368d791441461006c575b600080fd5b34801561004557600080fd5b50610060600480360381019061005b9190610170565b610097565b005b61006a6100f7565b005b34801561007857600080fd5b5061008161013d565b60405161008e91906101bb565b60405180910390f35b80600160008473ffffffffffffffffffffffffffffffffffffffff1673ffffffffffffffffffffffffffffffffffffffff16815260200190815260200160002081905550806000808282546100ec91906101d6565b925050819055505050565b34600160003373ffffffffffffffffffffffffffffffffffffffff1673ffffffffffffffffffffffffffffffffffffffff16815260200190815260200160002081905550565b60008054905090565b60008135905061015581610297565b92915050565b60008135905061016a816102ae565b92915050565b6000806040838503121561018357600080fd5b600061019185828601610146565b92505060206101a28582860161015b565b9150509250929050565b6101b58161025e565b82525050565b60006020820190506101d060008301846101ac565b92915050565b60006101e18261025e565b91506101ec8361025e565b9250827fffffffffffffffffffffffffffffffffffffffffffffffffffffffffffffffff0382111561022157610220610268565b5b828201905092915050565b60006102378261023e565b9050919050565b600073ffffffffffffffffffffffffffffffffffffffff82169050919050565b6000819050919050565b7f4e487b7100000000000000000000000000000000000000000000000000000000600052601160045260246000fd5b6102a08161022c565b81146102ab57600080fd5b50565b6102b78161025e565b81146102c257600080fd5b5056fea2646970667358221220dbddb6ee5adcb890d79e599f9d27fc010ef5961f375eeb30c50befd0f4792e0764736f6c63430008040033",
  "linkReferences": {},
  "deployedLinkReferences": {}
}