{
  "_format": "hh-sol-artifact-1",
  "contractName": "Bank",
  "sourceName": "contracts/Bank.sol",
  "abi": [
    {
      "inputs": [],
      "name": "addMoneyToBank",
      "outputs": [],
      "stateMutability": "payable",
      "type": "function"
    },
    {
      "inputs": [],
      "name": "depositCorrectly",
      "outputs": [],
      "stateMutability": "payable",
      "type": "function"
    },
    {
      "inputs": [
        {
          "internalType": "address",
          "name": "user",
          "type": "address"
        },
        {
          "internalType": "uint256",
          "name": "amount",
          "type": "uint256"
        }
      ],
      "name": "depositIncorrectly",
      "outputs": [],
      "stateMutability": "nonpayable",
      "type": "function"
    },
    {
      "inputs": [
        {
          "internalType": "address",
          "name": "userAddress",
          "type": "address"
        }
      ],
      "name": "getBalance",
      "outputs": [
        {
          "internalType": "uint256",
          "name": "",
          "type": "uint256"
        }
      ],
      "stateMutability": "view",
      "type": "function"
    },
    {
      "inputs": [],
      "name": "getGlobalBankBalance",
      "outputs": [
        {
          "internalType": "uint256",
          "name": "",
          "type": "uint256"
        }
      ],
      "stateMutability": "nonpayable",
      "type": "function"
    },
    {
      "inputs": [],
      "name": "withdraw",
      "outputs": [],
      "stateMutability": "payable",
      "type": "function"
    }
  ],
  "bytecode": "0x608060405234801561001057600080fd5b506105f7806100206000396000f3fe6080604052600436106100555760003560e01c806317c077ae1461005a5780631c59a00f14610064578063294537691461008d5780633ccfd60b1461009757806368d79144146100a1578063f8b2cb4f146100cc575b600080fd5b610062610109565b005b34801561007057600080fd5b5061008b6004803603810190610086919061037e565b61010b565b005b61009561016b565b005b61009f6101b1565b005b3480156100ad57600080fd5b506100b6610253565b6040516100c391906103c9565b60405180910390f35b3480156100d857600080fd5b506100f360048036038101906100ee9190610355565b61025c565b60405161010091906103c9565b60405180910390f35b565b80600160008473ffffffffffffffffffffffffffffffffffffffff1673ffffffffffffffffffffffffffffffffffffffff168152602001908152602001600020819055508060008082825461016091906103e4565b925050819055505050565b34600160003373ffffffffffffffffffffffffffffffffffffffff1673ffffffffffffffffffffffffffffffffffffffff16815260200190815260200160002081905550565b600033905060006101c13361025c565b90506000600160003373ffffffffffffffffffffffffffffffffffffffff1673ffffffffffffffffffffffffffffffffffffffff168152602001908152602001600020819055508173ffffffffffffffffffffffffffffffffffffffff166108fc829081150290604051600060405180830381858888f1935050505015801561024e573d6000803e3d6000fd5b505050565b60008054905090565b600080600160008473ffffffffffffffffffffffffffffffffffffffff1673ffffffffffffffffffffffffffffffffffffffff1681526020019081526020016000205490506000600260008573ffffffffffffffffffffffffffffffffffffffff1673ffffffffffffffffffffffffffffffffffffffff16815260200190815260200160002054426102ee91906104c5565b905063bbf81e0081600784610303919061046b565b61030d919061046b565b610317919061043a565b8261032291906103e4565b92505050919050565b60008135905061033a81610593565b92915050565b60008135905061034f816105aa565b92915050565b60006020828403121561036757600080fd5b60006103758482850161032b565b91505092915050565b6000806040838503121561039157600080fd5b600061039f8582860161032b565b92505060206103b085828601610340565b9150509250929050565b6103c38161052b565b82525050565b60006020820190506103de60008301846103ba565b92915050565b60006103ef8261052b565b91506103fa8361052b565b9250827fffffffffffffffffffffffffffffffffffffffffffffffffffffffffffffffff0382111561042f5761042e610535565b5b828201905092915050565b60006104458261052b565b91506104508361052b565b9250826104605761045f610564565b5b828204905092915050565b60006104768261052b565b91506104818361052b565b9250817fffffffffffffffffffffffffffffffffffffffffffffffffffffffffffffffff04831182151516156104ba576104b9610535565b5b828202905092915050565b60006104d08261052b565b91506104db8361052b565b9250828210156104ee576104ed610535565b5b828203905092915050565b60006105048261050b565b9050919050565b600073ffffffffffffffffffffffffffffffffffffffff82169050919050565b6000819050919050565b7f4e487b7100000000000000000000000000000000000000000000000000000000600052601160045260246000fd5b7f4e487b7100000000000000000000000000000000000000000000000000000000600052601260045260246000fd5b61059c816104f9565b81146105a757600080fd5b50565b6105b38161052b565b81146105be57600080fd5b5056fea2646970667358221220f5ffae0e372e03abbef2266195eb1214813ec049d5254e3b6bc83a389816599c64736f6c63430008040033",
  "linkReferences": {},
  "deployedLinkReferences": {}
}